:100000000C9437010C945F010C945F010C945F0118
:100010000C945F010C945F010C945F010C945F01E0
:100020000C945F010C945F010C945F010C945F01D0
:100030000C945F010C945F010C945F010C945F01C0
:100040000C9444070C945F010C94B4070C948E0735
:100050000C945F010C945F010C945F010C945F01A0
:100060000C945F010C945F0153657454696D653A9B
:100070000073746172743A0074696D654F766572CD
:100080003A006F6E006F66660047453A006F6E007B
:100090006F66660047413A006F6E006F6666004209
:1000A000453A00746F3A0062523A0067463A006778
:1000B000533A007365742064656661756C742076CC
:1000C000616C756573004272617576657265696E03
:1000D0002E6F72670062004F004400550041757337
:1000E0006C6F6573652053636877656C6C6500425F
:1000F0006965722052756865205B735D00434F32FD
:10010000204675656C6C7A656974205B735D00438D
:100110004F3220537075656C7A656974205B735D2E
:100120000042453A4F46460042453A204F4E00476E
:10013000413A4F46460047413A204F4E0047453A24
:100140004F46460047453A204F4E004D3A004D611C
:100150006E75616C3A004D616E75616C005365742B
:100160007570005374617274004D656E75004D4179
:100170004E55414C004D414E55414C005345545550
:100180005000534554555000434F32535055454C41
:10019000454E00434F3220537075656C656E0053B9
:1001A000656E736F724F6E0074763A00535441520D
:1001B0005400456E646500466C6173636865205643
:1001C0006F6C6C00464C4153434845564F4C4C2095
:1001D000454E444500426965722052756865004687
:1001E0004C4153434845564F4C4C00426965722080
:1001F0004675656C6C656E00426965722046756572
:100200006C6C656E00434F32204675656C6C656E94
:1002100000434F324655454C4C454E00000000000F
:10022000240027002A0000000000250028002B00E1
:10023000040404040404040402020202020203038C
:100240000303030301020408102040800102040894
:100250001020010204081020000000080002010024
:10026000000304070000000000000000EB07112459
:100270001FBECFEFD8E0DEBFCDBF11E0A0E0B1E000
:10028000EAE6F3E202C005900D92A434B107D9F773
:1002900022E0A4E4B1E001C01D92A936B207E1F763
:1002A00011E0C7E3D1E004C02197FE010E94C60E11
:1002B000C633D107C9F70E9445080C94B3110C94BA
:1002C000000090E0FC01E85AFD4F2491FC01EC5B3A
:1002D000FD4F3491FC01E05DFD4FE491EE23C9F048
:1002E000222339F0233001F1A8F4213019F1223012
:1002F00029F1F0E0EE0FFF1FEA5DFD4FA591B491EB
:100300008FB7F894EC91611126C030953E233C9351
:100310008FBF08952730A9F02830C9F0243049F75D
:10032000809180008F7D03C0809180008F778093C3
:100330008000DFCF84B58F7784BDDBCF84B58F7D20
:10034000FBCF8091B0008F778093B000D2CF8091A7
:10035000B0008F7DF9CF3E2BDACFCF93DF9390E0C3
:10036000FC01EC5BFD4F2491805D9D4FFC0184916D
:100370008823D1F090E0880F991FFC01E45EFD4FC7
:10038000A591B491FC01EA5DFD4FC591D491623015
:1003900071F49FB7F8943C91822F809583238C93BE
:1003A000E8812E2B28839FBFDF91CF9108958FB7CF
:1003B000F894EC912E2B2C938FBFF6CF8064809312
:1003C0007C0080917A00806480937A0080917A002A
:1003D00086FDFCCF809178009091790008953FB719
:1003E000F8948091640190916501A0916601B091AB
:1003F000670126B5A89B05C02F3F19F00196A11DE6
:10040000B11D3FBFBA2FA92F982F8827BC01CD015E
:10041000620F711D811D911D42E0660F771F881FBD
:10042000991F4A95D1F708958F929F92AF92BF92EC
:10043000CF92DF92EF92FF924B015C010E94EF019D
:100440006B017C010E94EF016C197D098E099F09E7
:10045000683E734081059105A8F321E0821A910856
:10046000A108B10888EEC80E83E0D81EE11CF11C7B
:1004700081149104A104B10429F7FF90EF90DF905B
:10048000CF90BF90AF909F908F900895EF92FF9282
:100490000F931F93CF93DF938C017B01D0E0C0E0DB
:1004A000F701EC0FFD1F6491662361F0D801ED9117
:1004B000FC910190F081E02DC8010995892B11F084
:1004C0002196EECFCE01DF91CF911F910F91FF903A
:1004D000EF900895AF92BF92CF92DF92EF92FF928A
:1004E0000F931F93CF93DF936C017B018B01040F5C
:1004F000151FEB015E01AE18BF08C017D10759F0F8
:100500006991D601ED91FC910190F081E02DC60139
:100510000995892B79F7C501DF91CF911F910F9133
:10052000FF90EF90DF90CF90BF90AF900895FC01C7
:10053000538D448D252F30E0842F90E0821B930B48
:10054000541710F0CF96089501970895FC01918DEE
:10055000828D981761F0A28DAE0FBF2FB11D5D96F1
:100560008C91928D9F5F9F73928F90E008958FEF93
:100570009FEF0895FC01918D828D981731F0828D47
:10058000E80FF11D858D90E008958FEF9FEF08959E
:10059000FC01918D228D892F90E0805C9F4F821B02
:1005A00091098F739927089588E691E00E94C80207
:1005B00021E0892B09F420E0822F089580E090E06B
:1005C000892B29F00E94D40281110C940000089517
:1005D000FC01A48DA80FB92FB11DA35ABF4F2C91B8
:1005E000848D90E001968F739927848FA689B789AF
:1005F0002C93A089B1898C91837080648C93938DA6
:10060000848D981306C00288F389E02D80818F7D48
:1006100080830895EF92FF920F931F93CF93DF9300
:10062000EC0181E0888F9B8D8C8D98131AC0E8892E
:10063000F989808185FF15C09FB7F894EE89FF89FD
:100640006083E889F98980818370806480839FBF9B
:1006500081E090E0DF91CF911F910F91FF90EF909B
:100660000895F62E0B8D10E00F5F1F4F0F731127AB
:10067000E02E8C8D8E110CC00FB607FCFACFE889E6
:10068000F989808185FFF5CFCE010E94E802F1CF84
:10069000EB8DEC0FFD2FF11DE35AFF4FF0829FB75A
:1006A000F8940B8FEA89FB8980818062CFCFCF934A
:1006B000DF93EC01888D8823B9F0AA89BB89E8898A
:1006C000F9898C9185FD03C0808186FD0DC00FB630
:1006D00007FCF7CF8C9185FFF2CF808185FFEDCFAE
:1006E000CE010E94E802E9CFDF91CF9108950895ED
:1006F00090E080E00895CF93DF93EC0160E08E817D
:100700000E94610161E08E810E94610160E08E8142
:100710000E9461018BE891E00197F1F7DF91CF91A1
:100720000895CF92DF92EF92FF920F931F93CF9392
:10073000DF936C017C0187E0E80EF11CD0E0C0E0A3
:10074000062F10E0B8010C2E02C0759567950A942B
:10075000E2F76170F70181917F010E9461012196AA
:10076000C430D10579F7C601DF91CF911F910F9168
:10077000FF90EF90DF90CF900C947B03CF92DF92AD
:10078000EF92FF920F931F93CF93DF93EC01F62E1E
:10079000642F8C810E9461018D818F3F19F060E090
:1007A0000E9461010F2D10E08F8584FF25C06E012E
:1007B00087E0C80ED11CF12CE12CB8010E2C02C030
:1007C000759567950A94E2F76170F60181916F0162
:1007D0000E946101FFEFEF1AFF0A88E0E816F104BA
:1007E00061F7CE01DF91CF911F910F91FF90EF90B4
:1007F000DF90CF900C947B03B80184E075956795EA
:100800008A95E1F7CE010E9491036F2DCE01DF9111
:10081000CF911F910F91FF90EF90DF90CF900C94AC
:10082000910340E0682F81E592E00C94BE0381E0E3
:100830000E9411048BE39FE10197F1F70895CF9394
:10084000DF93823029F49091600298609093600267
:10085000809364021092650280E48093660280E1D6
:100860008093670280E58093680261E08091550281
:100870000E94AD01809156028F3F19F061E00E9405
:10088000AD0161E0809157020E94AD01C1E5D2E067
:100890009E01215532408091600284FD0BC084E0AE
:1008A00090E021962817390744F461E08E810E9478
:1008B000AD01EECF88E090E0F4CF8BE39DE00197AF
:1008C000F1F760E0809155020E94610160E0809143
:1008D00057020E946101809156028F3F19F060E03B
:1008E0000E9461018091600284FD34C063E081E573
:1008F00092E00E949103CBE4D6E4CE010197F1F798
:1009000063E081E592E00E9491032197F1F763E0B3
:1009100081E592E00E94910383E592E00197F1F76F
:1009200062E081E592E00E94910380916002806222
:100930000E94110484E0809361028CE00E94110403
:100940000E94170482E08093620286E0DF91CF91DB
:100950000C94110480620E9411048BE496E40197C8
:10096000F1F78091600280620E94110483E592E0B9
:100970000197F1F78091600280620E941104D5CF47
:1009800090916402891710F08FEF890FE82FF0E043
:10099000EF5AFD4F848980680C94110441E00E9455
:1009A000BE0381E090E00895FB0101900020E9F78B
:1009B0003197AF01461B570BDC01ED91FC91028092
:1009C000F381E02D0994CF93DF93BC0188E691E099
:1009D0000E944602EC016CE271E088E691E00E9420
:1009E000D4048C0F9D1FDF91CF910895CF939091E8
:1009F00046019817B1F0C82F6FE970E088E691E0E2
:100A00000E944602C09346016C2F8BE00E94610158
:100A100088E990E0C11102C08BE990E0CF910C947D
:100A2000E304CF910895CF93909145019817B1F0C9
:100A3000C82F64E970E088E691E00E944602C09306
:100A400045016C2F8CE00E9461018DE890E0C1119E
:100A500002C080E990E0CF910C94E304CF91089517
:100A6000CF93909144019817B1F0C82F69E870E0D6
:100A700088E691E00E944602C09344016C2F8DE00D
:100A80000E94610182E890E0C11102C085E890E017
:100A9000CF910C94E304CF91089581E090E090937E
:100AA0000301809302019093050180930401109249
:100AB00048011092470180E00E9430058091570163
:100AC00090915801A0915901B0915A01892B8A2B1C
:100AD0008B2B09F457C081E00E94130580E00E942F
:100AE000F604109218021092190210921A02109233
:100AF0001B021092240210922502109226021092DC
:100B00002702109228021092290210922A021092B3
:100B10002B0210922C0210922D0210922E02109293
:100B20003702109238021092390210923A02109253
:100B30003B0210923C0210923D0210923E02109233
:100B40003F02109240021092410210924A0210920B
:100B50004B0210924C0210924D0210924E021092D3
:100B60004F02109250021092490110924A011092C5
:100B70004B0110924C0110924D0110924E011092B7
:100B80005E01089580E0A8CF8F929F92AF92BF92AE
:100B9000EF92FF920F931F93CF93DF93CDB7DEB702
:100BA000A1970FB6F894DEBF0FBECDBF7C01FA014E
:100BB000CB0119A2223008F42AE08E010F5D1F4FED
:100BC000822E912CB12CA12CBF01A50194010E9471
:100BD000990EF901CA016A300CF5605DD8016E9377
:100BE0008D01232B242B252B79F790E080E01097A3
:100BF00021F0BD01C7010E94D404A1960FB6F8945C
:100C0000DEBF0FBECDBFDF91CF911F910F91FF903F
:100C1000EF90BF90AF909F908F900895695CDECF6A
:100C2000CF93DF93AB01BC012AE088E691E00E94FC
:100C3000C405EC016CE271E088E691E00E94D40406
:100C40008C0F9D1FDF91CF910895CF93DF93EC011F
:100C50008A89882321F080E0DF91CF9108952FB712
:100C6000F8948091600190916101A0916201B0912E
:100C700063012FBF488159816A817B81841B950B59
:100C8000A60BB70B88879987AA87BB874C815D81A4
:100C90006E817F8184179507A607B707E0F268E7A2
:100CA00070E088E691E00E944602688579858A8531
:100CB0009B850E9410068C819D81AE81BF818887B3
:100CC0009987AA87BB8781E0C7CFCF93DF93FC01C9
:100CD000208921111EC0EC012FB7F894809160018A
:100CE00090916101A0916201B09163012FBF808357
:100CF0009183A283B38361E770E088E691E00E946C
:100D00004602688179818A819B810E94100681E078
:100D1000888BDF91CF910895CF92DF92EF92FF926F
:100D2000CF93DF936C01990FEE08FF08F7FE23C005
:100D30006DE288E691E00E940A03EC014427552702
:100D4000BA014C195D096E097F092AE088E691E035
:100D50000E94C405C80FD91F6CE271E088E691E0DB
:100D60000E94D4048C0F9D1FDF91CF91FF90EF90D4
:100D7000DF90CF9008952AE0B701A60188E691E0C0
:100D80000E94C405EC01E8CFCF93DF93EC014C83C4
:100D90005D836E837F83188219821A821B821C8670
:100DA0001D861E861F86188A198A1A8A68E670E0D0
:100DB00088E691E00E9446028C819D81DF91CF916F
:100DC0000C948C06CF93DF93BC0188E691E00E94DF
:100DD000D404EC016CE271E088E691E00E94D40456
:100DE0008C0F9D1FDF91CF910895DF92EF92FF92BC
:100DF0000F931F93CF93DF93EB0189017A01E20EEA
:100E0000F31E0E151F05A1F0C11584E0D80780F46C
:100E1000F999FECFF801D1908F01CE010E94830E87
:100E2000D81621F06D2DCE010E948B0E2196E9CFB0
:100E3000DF91CF911F910F91FF90EF90DF90089578
:100E4000EF92FF920F931F93CF93DF938A01020FCC
:100E5000131FE9017B01E21AF30AC017D10769F0F9
:100E6000C7018C0F9D1F811524E0920730F4F9997A
:100E7000FECF0E94830E8993F0CFDF91CF911F9117
:100E80000F91FF90EF9008951F920F920FB60F925F
:100E900011242F933F938F939F93AF93BF93809190
:100EA000600190916101A0916201B0916301309164
:100EB0005F0123E0230F2D3758F50196A11DB11DC9
:100EC00020935F018093600190936101A093620180
:100ED000B09363018091640190916501A0916601D6
:100EE000B09167010196A11DB11D8093640190939B
:100EF0006501A0936601B0936701BF91AF919F9187
:100F00008F913F912F910F900FBE0F901F901895CA
:100F100026E8230F0296A11DB11DD2CF1F920F927A
:100F20000FB60F9211242F933F934F935F936F93BC
:100F30007F938F939F93AF93BF93EF93FF9388E635
:100F400091E00E94E802FF91EF91BF91AF919F91D4
:100F50008F917F916F915F914F913F912F910F9062
:100F60000FBE0F901F9018951F920F920FB60F9201
:100F700011242F938F939F93EF93FF93E091780128
:100F8000F09179018081E0917E01F0917F0182FDF5
:100F90001BC09081809181018F5F8F7320918201AE
:100FA000821741F0E0918101F0E0E859FE4F958F02
:100FB00080938101FF91EF919F918F912F910F90DD
:100FC0000FBE0F901F9018958081F4CF40E050E045
:100FD000BA010C94C406E8E6F1E01382128288EEAE
:100FE00093E0A0E0B0E084839583A683B78382E199
:100FF00091E09183808385EC90E09587848784ECF1
:1010000090E09787868780EC90E0918B808B81ECD5
:1010100090E0938B828B82EC90E0958B848B86ECB6
:1010200090E0978B868B118E128E138E148EE1E5D5
:10103000F2E01382128284E291E09183808388E05F
:1010400084838FEF858389E0868384E0878385E0CE
:10105000808786E0818787E08287138614861586DD
:101060001686178681E00E941F048EE392E00E949C
:10107000E6078BE292E00E94E60788E192E00E9498
:10108000E60785E092E00C94E607CF93DF93CDB7B7
:10109000DEB762970FB6F894DEBF0FBECDBF78946F
:1010A00084B5826084BD84B5816084BD85B582606D
:1010B00085BD85B5816085BD80916E00816080931E
:1010C0006E00109281008091810082608093810087
:1010D0008091810081608093810080918000816097
:1010E000809380008091B10084608093B1008091F2
:1010F000B00081608093B00080917A00846080931A
:101100007A0080917A00826080937A0080917A00E0
:10111000816080937A0080917A00806880937A0061
:101120001092C100E0917801F091790182E0808312
:10113000E0917401F09175011082E0917601F091D7
:10114000770180E1808310928001E0917C01F09131
:101150007D0186E08083E0917A01F0917B018081BE
:1011600080618083E0917A01F0917B0180818860C9
:101170008083E0917A01F0917B0180818068808397
:10118000E0917A01F0917B0180818F7D808361E025
:101190008AE00E94AD0161E08DE00E94AD0161E056
:1011A0008CE00E94AD0161E08BE00E94AD0162E045
:1011B00081E00E94AD0182E00E941F048FE291E075
:1011C0000E94E20610925D012FE431E04FE050E012
:1011D00070E060E080E091E00E94200780915D0176
:1011E000811139C063EB70E088E691E00E9446020D
:1011F00085E090E0A0E0B0E080934F019093500133
:10120000A0935101B09352018093530190935401E4
:10121000A0935501B09356018AE090E0A0E0B0E0C1
:101220008093570190935801A0935901B0935A01AC
:1012300082E390E090935C0180935B0181E0809376
:101240005D012FE431E04FE050E070E060E080E0CD
:1012500091E00E94F5066FEA70E088E691E00E9456
:10126000460260914F01709150018091510190911F
:1012700052010E9410066BEA70E088E691E00E943D
:1012800046026091530170915401809155019091F3
:1012900056010E94100667EA70E088E691E00E941D
:1012A00046026091570170915801809159019091C7
:1012B0005A010E94100663EA70E088E691E00E94FD
:1012C000460280915B0190915C010E948C06109215
:1012D0004601109245011092440161E08AE00E94AB
:1012E000610160E08DE00E94610160E08CE00E949D
:1012F000610160E08BE00E9461010E944D050E9447
:10130000170480E00E94C00466EC70E081E592E082
:101310000E94460260ED77E080E090E00E941402B7
:101320000E94170420914F013091500140915101CA
:1013300050915201A8EEB3E00E94BB0EAB01BC017C
:101340008EE392E00E94C40620914F01309150013B
:101350004091510150915201A8EEB3E00E94BB0EA2
:10136000AB01BC018BE292E00E94C40620915701C0
:10137000309158014091590150915A01A8EEB3E0C3
:101380000E94BB0EAB01BC0188E192E00E94C40642
:1013900044EF51E060E070E085E092E00E94C40616
:1013A000AA24A394B12C32E0832E912C33243394BD
:1013B00087E0482E512C96E0692E712CF12CE12CFF
:1013C00080E00E94DE0103E010E08C339105C4F060
:1013D00001E010E0883C91059CF002E010E08039CB
:1013E00021E092076CF004E010E0883522E09207DB
:1013F0003CF005E010E08032934014F010E000E093
:101400006AE070E080E090E00E941402E016F106CD
:1014100009F063C0E114F104B1F0F701E75BFE4F9E
:10142000808181110AC0308265ED70E088E691E02C
:101430000E944602C7010E948C0668EC70E080E0C2
:1014400090E00E9414028091040190910501813086
:10145000910509F007C380E00E94C0048091020159
:10146000909103018130910509F0BBC080914A0140
:1014700010924A01882399F16BED70E088E691E0C3
:101480000E94460280914701909148010196833065
:101490009105E9F5109248011092470169E671E063
:1014A00081E592E00E94460281E00E94C0048091A2
:1014B0004701909148018130910509F48CC0823038
:1014C000910509F48BC063E671E0892B09F050C0E7
:1014D00081E592E00E9446024BC0780171CF809175
:1014E0004B0110924B018823B9F069ED70E088E65A
:1014F00091E00E9446028091470190914801009737
:1015000029F49092480180924701C8CF01979093A7
:10151000480180934701C2CF80914D0110924D0147
:10152000882309F4BBCF67ED70E088E691E00E9464
:10153000460280914701909148018130910529F13F
:1015400082309105A1F1892B99F490920501809246
:1015500004010E94170480E00E94C00463E971E066
:1015600081E592E00E94460288E891E00E94E3044F
:1015700080E090E0892B09F421CF0E94D4028823D7
:1015800009F414CF0E94000011CF909203018092C1
:1015900002010E94170480E00E94C00462E871E02A
:1015A00081E592E00E9446028CE791E0DFCF83E084
:1015B00090E090930301809302010E94170480E061
:1015C0000E94C00465E771E081E592E00E94460256
:1015D0008EE691E0CBCF6DE571E07ACF66E571E004
:1015E00077CF8330910509F0A2C081E00E94DE012F
:1015F0009F938F938AE391E09F938F9381E090E094
:101600008C0F9D1F9F938F930E94DB0E80E00E94A2
:10161000C0046EE471E081E592E00E94460285E03C
:1016200092E00E94650685E092E00E9425060F90F8
:101630000F900F900F900F900F90882359F1BE01DB
:101640006F5F7F4F81E592E00E94D4046BE471E00C
:1016500088E691E00E944602CE0101960E94E206D1
:1016600010920502109206021092070210920802D0
:101670001092110210921202109213021092140290
:1016800010921502109216021092170285E092E055
:101690000E94650681E00E94C00480914A01109278
:1016A0004A01882371F08091440183250E9430050E
:1016B0008091440164E471E081110ACF6DE371E02F
:1016C00007CF80914B0110924B01882371F08091DC
:1016D000450183250E9413058091450166E371E071
:1016E0008111F6CE6FE271E0F3CE80914C01109241
:1016F0004C01882371F08091460183250E94F604F5
:101700008091460168E271E08111E2CE61E271E010
:10171000DFCE80914D0110924D01882309F428CF2E
:10172000B0920301A09202010E94170421CF8230DF
:10173000910509F061C06FE071E081E592E00E94DF
:10174000460281E00E94C00440914F015091500137
:1017500060915101709152012AE081E592E00E946E
:10176000C40580914A0110924A018823A1F080911A
:101770004F0190915001A0915101B09152010196F9
:10178000A11DB11D80934F0190935001A093510171
:10179000B0935201EDCE80914B0110924B01882302
:1017A00089F080914F0190915001A0915101B09129
:1017B00052010097A105B10509F4DACE0197A109FC
:1017C000B109E0CF80914D0110924D01882309F4B9
:1017D000CFCE84E090E090930301809302010E94B9
:1017E000170460914F0170915001809151019091C7
:1017F00052010E941006BCCE8430910509F05FC0F2
:101800006DEF70E081E592E00E94460281E00E9467
:10181000C004409153015091540160915501709161
:1018200056012AE081E592E00E94C40580914A01B8
:1018300010924A018823A1F08091530190915401A4
:10184000A0915501B09156010196A11DB11D809343
:10185000530190935401A0935501B093560188CE43
:1018600080914B0110924B01882389F080915301A4
:1018700090915401A0915501B09156010097A10596
:10188000B10509F475CE0197A109B109E0CF8091A6
:101890004D0110924D01882309F46ACE85E090E055
:1018A00090930301809302010E94170460915301F9
:1018B0007091540180915501909156019ACF8530D5
:1018C000910509F05DC06FEE70E081E592E00E9445
:1018D000460281E00E94C004409157015091580196
:1018E0006091590170915A012AE081E592E00E94CD
:1018F000C40580914A0110924A018823A1F0809189
:10190000570190915801A0915901B0915A01019647
:10191000A11DB11D8093570190935801A0935901C7
:10192000B0935A0125CE80914B0110924B01882330
:1019300089F08091570190915801A0915901B0917F
:101940005A010097A105B10509F412CE0197A1092A
:10195000B109E0CF80914D0110924D01882309F427
:1019600007CE70920301609202010E9417046091F9
:101970005701709158018091590190915A0139CFC6
:10198000069709F0F5CD6DED70E081E592E00E94DB
:10199000460281E00E94C004C0905B01D0905C01CF
:1019A0000D2C000CEE08FF082AE0B701A601F7FE97
:1019B0000EC041E06DE281E592E00E94BE03442743
:1019C0005527BA014C195D096E097F092AE081E5A6
:1019D00092E00E94C40580914A0110924A01882336
:1019E00079F080915B0190915C018F3F23E0920739
:1019F0000CF0BECD0A9690935C0180935B01B8CD4C
:101A000080914B0110924B01882351F080915B0132
:101A100090915C01181619060CF0AACD0A97EBCF2D
:101A200080914D0110924D01882309F4A1CDB0920F
:101A30000301A09202010E9417042FE431E04FE05D
:101A400050E070E060E080E091E00E94F5068EE3F7
:101A500091E00E94E20680915B0190915C010E94FE
:101A60008C0686CD8230910579F581E00E941305C0
:101A700081E00E94300580E00E94F6048EE392E04F
:101A80000E9465068EE392E00E942506882309F4F1
:101A90006FCD80E00E94130580E00E94300580E059
:101AA0000E94F60483E090E0909305018093040186
:101AB00081E192E00E94E3040E94170480E00E940A
:101AC000C00465E072E004CD8330910521F580E02B
:101AD0000E94130581E00E94300580E00E94F60418
:101AE0008BE292E00E9465068BE292E00E9425065E
:101AF000882309F43DCD80E00E94130580E00E9418
:101B0000300580E00E94F60484E090E090930501A7
:101B1000809304012DCD84309105E9F481E00E9489
:101B2000130580E00E94300581E00E94F60485E004
:101B300090E0909305018093040110925E0188EF7C
:101B400091E00E94E3040E94170480E00E94C00418
:101B50006BEE71E0BDCC8530910509F09FC081E04E
:101B60000E94130580E00E94300581E00E94F60487
:101B700085E092E00E94650680915E01811111C0AE
:101B8000F0904C0110924C01FF2091F130925E01D7
:101B90008FE991E00E94E30480915E01882309F4BB
:101BA000E7CC80E00E94300580E00E94F60480913E
:101BB000570190915801A0915901B0915A01892B78
:101BC0008A2B8B2B09F457C080E00E94130570927A
:101BD0000501609204018FED91E00E94E3040E94F0
:101BE000170480E00E94C00465ED71E071CCFE2C0A
:101BF00081E00E94DE018C0185E092E00E942506D2
:101C0000882319F168EA71E088E691E00E944602B3
:101C1000C8010E948C0610920502109206021092D2
:101C200007021092080210921102109212021092F2
:101C300013021092140210921502109216021092C2
:101C4000170285E092E00E946506EE24E3948091FD
:101C50005B0190915C01081719070CF0E12C6AE018
:101C600070E080E090E00E941402FE10C0CFFF20E0
:101C700009F492CF8BCF81E00E94130550920501A9
:101C80004092040184EC91E00E94E3040E94170456
:101C900080E00E94C00467EB71E01ACC86309105A9
:101CA00021F580E00E94130580E00E94300580E06D
:101CB0000E94F60488E192E00E94650688E192E0C5
:101CC0000E942506882309F453CC81E00E94130565
:101CD00080E00E94300580E00E94F60450920501E9
:101CE0004092040182EB91E041CC079709F040CC8F
:101CF0000E944D05B0920501A09204018CEA91E08A
:101D00000E94E30411CDF999FECF92BD81BDF89AEE
:101D1000992780B50895262FF999FECF1FBA92BD55
:101D200081BD20BD0FB6F894FA9AF99A0FBE0196BC
:101D30000895A1E21A2EAA1BBB1BFD010DC0AA1F0C
:101D4000BB1FEE1FFF1FA217B307E407F50720F024
:101D5000A21BB30BE40BF50B661F771F881F991F9F
:101D60001A9469F760957095809590959B01AC01E8
:101D7000BD01CF0108950E94CC0EA59F900DB49F88
:101D8000900DA49F800D911D11240895EE0FFF1F4B
:101D90000590F491E02D0994A29FB001B39FC0017A
:101DA000A39F700D811D1124911DB29F700D811D87
:101DB0001124911D0895AEE0B0E0E1EEFEE00C9438
:101DC0008A110D891E8986E08C831A8309838FEF1F
:101DD0009FE79E838D83AE01475E5F4F6F89788D4D
:101DE000CE0101960E94FE0E2F813885020F131F2F
:101DF000F80110822E96E4E00C94A611ABE0B0E05E
:101E0000E4E0FFE00C947C117C013B018A01FC01C1
:101E100017821682838181FFC8C1CE0101965C01C1
:101E2000F7019381F30193FD859193FF81913F0128
:101E3000882309F453C1853239F493FD859193FFCA
:101E400081913F01853229F4B70190E00E94EE10A4
:101E5000E7CF912C212C312CFFE1F31538F08B3298
:101E600011F190F4803209F1833229F137FC3CC042
:101E700020ED280F2A3050F536FE20C08AE0989ECB
:101E8000200D1124922E06C08D3291F0803371F70F
:101E9000689430F8F30193FD859193FF81913F01A0
:101EA0008111DACF21C0689431F8689432F8F2CF0A
:101EB000689433F8EFCF689434F8ECCFEAE02E9EC4
:101EC000200D1124222E689435F8E4CF8E3229F4A7
:101ED00036FC04C1689436F8DDCF8C3619F468946A
:101EE00037F8D8CF8836B1F2982F9F7D955493302C
:101EF000E0F08336A1F18337C1F1833509F063C087
:101F00002801F2E04F0E511CF801C080D180692DEC
:101F100070E036FC02C06FEF7FEFC6010E94D81060
:101F20004C01689437F882010AC00C5F1F4FFFE331
:101F3000F98388248394912C6501E89437F833FE63
:101F40002DC0522C8114910471F5552009F468CFED
:101F5000B70180E290E00E94EE105A94F6CFF801AB
:101F6000808189830E5F1F4FE4CF2801F2E04F0E7E
:101F7000511CF801C080D180692D70E036FC02C090
:101F80006FEF7FEFC6010E94E3104C018201D5CFB5
:101F9000B70180E290E00E94EE102A942814190400
:101FA00009F0B0F7CECFF60137FC859137FE81916D
:101FB0006F01B70190E00E94EE1051105A94F1E0C9
:101FC0008F1A9108BFCF843619F0893609F077C08F
:101FD000F80137FE6BC060817181828193810C5F53
:101FE0001F4FF32DFF763F2E97FF09C090958095E8
:101FF000709561957F4F8F4F9F4F689437F82AE017
:1020000030E0A5010E941E11C82ECA188C2C432C4A
:1020100036FE0CC0E89440F8C91440F434FE05C004
:1020200032FC03C0F32DFE7E4F2E892C44FE95C05A
:10203000FE01EC0DF11D8081803309F087C0242D55
:10204000297E422E842D8870582E43FC95C040FE78
:102050008FC09C2C821418F42C0C922C981844FEDF
:1020600091C0B70180E390E00E94EE1042FE09C0EB
:1020700088E790E041FE02C088E590E0B7010E9449
:10208000EE10C91408F48AC0CA94D12C9FEFC91A63
:10209000D90ACA0CDB1CF60182916F01B70190E0EE
:1020A0000E94EE10AC14BD04B1F74FCF6081718176
:1020B000072E000C880B990B0E5F1F4F92CFD32C6D
:1020C000E894D4F82AE030E0853739F1232D297FD0
:1020D000D22E8F3601F148F48835A9F0F7018681B8
:1020E00097812B96E2E10C949811803749F088375C
:1020F000A9F7D4FE02C06894D2F820E130E00DC008
:102100006894D4F8F6CF34FE03C0822F8660D82EB0
:1021100020E132E002C028E030E0F801D7FE0FC035
:1021200060817181828193810C5F1F4FA5010E94A4
:102130001E11C82ECA183D2CE89437F867CF60816D
:10214000718190E080E00E5F1F4FF0CF42FC02C033
:10215000839478CF8394839475CF842D867809F403
:1021600071CFF6CFB70180E290E00E94EE10839429
:102170008214C0F3512C73CF522C5818821408F4D7
:102180006ECFF8CF842D867809F47BCF8BE241FEA9
:1021900080E247FC8DE2B70190E071CFB70180E3A8
:1021A00090E00E94EE109A946CCF8FEF9FEF99CF42
:1021B000FC010590615070400110D8F78095909512
:1021C0008E0F9F1F0895FC01615070400190011017
:1021D000D8F7809590958E0F9F1F08950F931F93AA
:1021E000CF93DF93182F092FEB018B8181FD09C05D
:1021F0001FEF0FEF812F902FDF91CF911F910F9144
:10220000089582FF14C02E813F818C819D81281703
:1022100039073CF4E881F981CF01019699838883DD
:1022200010838E819F8101969F838E83E3CFE88503
:10223000F985812F0995892BA1F3DACFFA01AA2715
:10224000283051F1203181F1E8946F936E7F6E5FF9
:102250007F4F8F4F9F4FAF4FB1E03ED0B4E03CD0A7
:10226000670F781F891F9A1FA11D680F791F8A1F8A
:10227000911DA11D6A0F711D811D911DA11D20D0F1
:1022800009F468943F912AE0269F11243019305DAB
:102290003193DEF6CF010895462F4770405D41939C
:1022A000B3E00FD0C9F7F6CF462F4F70405D4A33E9
:1022B00018F0495D31FD4052419302D0A9F7EACFB1
:1022C000B4E0A6959795879577956795BA95C9F7E0
:1022D00000976105710508959B01AC010A2E0694D3
:1022E0005795479537952795BA95C9F7620F731F8C
:1022F000841F951FA01D08952F923F924F925F92C9
:102300006F927F928F929F92AF92BF92CF92DF9205
:10231000EF92FF920F931F93CF93DF93CDB7DEB76A
:10232000CA1BDB0B0FB6F894DEBF0FBECDBF0994FE
:102330002A88398848885F846E847D848C849B8455
:10234000AA84B984C884DF80EE80FD800C811B8163
:10235000AA81B981CE0FD11D0FB6F894DEBF0FBE92
:0A236000CDBFED010895F894FFCF02
:10236A000A0101000100000000002007F506000034
:10237A0000000A036A0297025703C802A602BA02B9
:10238A0000000000CE046A02780377030D0A004CAD
:10239A006F616456616C756573002534750053610D
:0423AA0076656400F0
:00000001FF
