:100000000C942B010C9453010C9453010C94530148
:100010000C9453010C9453010C9453010C94530110
:100020000C9453010C9453010C9453010C94530100
:100030000C9453010C9453010C9453010C945301F0
:100040000C9496070C9453010C9464070C943E078F
:100050000C9453010C9453010C9453010C945301D0
:100060000C9453010C94530153657454696D653AB3
:100070000073746172743A0074696D654F766572CD
:100080003A006F6E006F66660047453A006F6E007B
:100090006F66660047413A006F6E006F6666004209
:1000A000453A0000000000240027002A000000005C
:1000B00000250028002B00040404040404040402A6
:1000C00002020202020303030303030102040810F5
:1000D00020408001020408102001020408102000C2
:1000E00000000800020100000304070000000000F7
:1000F000000000746F3A0062523A0067463A0067A7
:10010000533A004272617576657265696E2E6F7240
:10011000670062004F00440055004175736C6F65C5
:1001200073652053636877656C6C6500426965721E
:100130002052756865205B735D00434F3220467521
:10014000656C6C7A656974205B735D00434F322087
:10015000537075656C7A656974205B735D00424508
:100160003A4F46460042453A204F4E0047413A4FEB
:1001700046460047413A204F4E0047453A4F4646D3
:100180000047453A204F4E004D3A004D616E756173
:100190006C3A004D616E75616C005365747570004A
:1001A0005374617274004D656E75004D414E55413A
:1001B0004C004D414E55414C005345545550005351
:1001C0004554555000434F32535055454C454E0011
:1001D000434F3220537075656C656E0053656E73C6
:1001E0006F724F6E0074763A00535441525400457A
:1001F0006E646500466C617363686520566F6C6C55
:1002000000464C4153434845564F4C4C00426965AB
:1002100072205275686500464C4153434845564F1D
:100220004C4C0042696572204675656C6C656E00C9
:1002300042696572204675656C6C656E00434F328D
:10024000204675656C6C656E00434F324655454CD3
:100250004C454E00E50711241FBECFEFD8E0DEBFAE
:10026000CDBF11E0A0E0B1E0ECEEFCE102C00590F2
:100270000D92AA33B107D9F722E0AAE3B1E001C099
:100280001D92AF35B207E1F711E0CBE2D1E004C037
:100290002197FE010E945F0ECA32D107C9F70E9462
:1002A0003F080C94740E0C940000EF92FF920F9391
:1002B0001F93CF93DF938C017B01D0E0C0E0F70167
:1002C000EC0FFD1F6491662361F0D801ED91FC9164
:1002D0000190F081E02DC8010995892B11F021963C
:1002E000EECFCE01DF91CF911F910F91FF90EF9054
:1002F0000895AF92BF92CF92DF92EF92FF920F9349
:100300001F93CF93DF936C017B018B01040F151FAB
:10031000EB015E01AE18BF08C017D10759F0699113
:10032000D601ED91FC910190F081E02DC601099577
:10033000892B79F7C501DF91CF911F910F91FF9024
:10034000EF90DF90CF90BF90AF900895FC01538D58
:10035000448D252F30E0842F90E0821B930B54179F
:1003600010F0CF96089501970895FC01918D828D2C
:10037000981761F0A28DAE0FBF2FB11D5D968C91C5
:10038000928D9F5F9F73928F90E008958FEF9FEF04
:100390000895FC01918D828D981731F0828DE80FC0
:1003A000F11D858D90E008958FEF9FEF0895FC017A
:1003B000918D228D892F90E0805C9F4F821B910947
:1003C0008F73992708958EE591E00E94D70121E06F
:1003D000892B09F420E0822F089580E090E0892B9A
:1003E00029F00E94E30181110C9400000895FC01A2
:1003F000A48DA80FB92FB11DA35ABF4F2C91848D86
:1004000090E001968F739927848FA689B7892C93E2
:10041000A089B1898C91837080648C93938D848D35
:10042000981306C00288F389E02D80818F7D808338
:100430000895EF92FF920F931F93CF93DF93EC01F8
:1004400081E0888F9B8D8C8D98131AC0E889F9897B
:10045000808185FF15C09FB7F894EE89FF8960837E
:10046000E889F98980818370806480839FBF81E0FF
:1004700090E0DF91CF911F910F91FF90EF90089541
:10048000F62E0B8D10E00F5F1F4F0F731127E02E1C
:100490008C8D8E110CC00FB607FCFACFE889F98954
:1004A000808185FFF5CFCE010E94F701F1CFEB8D62
:1004B000EC0FFD2FF11DE35AFF4FF0829FB7F89428
:1004C0000B8FEA89FB8980818062CFCFCF93DF9346
:1004D000EC01888D8823B9F0AA89BB89E889F9895C
:1004E0008C9185FD03C0808186FD0DC00FB607FC91
:1004F000F7CF8C9185FFF2CF808185FFEDCFCE01C4
:100500000E94F701E9CFDF91CF91089590E0FC01BF
:10051000E152FF4F2491FC01E553FF4F3491FC0160
:10052000E954FF4FE491EE23C9F0222339F0233040
:1005300001F1A8F4213019F1223029F1F0E0EE0F99
:10054000FF1FE355FF4FA591B4918FB7F894EC913D
:10055000611126C030953E233C938FBF089527300C
:10056000A9F02830C9F0243049F7809180008F7DB0
:1005700003C0809180008F7780938000DFCF84B5A7
:100580008F7784BDDBCF84B58F7DFBCF8091B000AA
:100590008F778093B000D2CF8091B0008F7DF9CF5C
:1005A0003E2BDACFCF93DF9390E0FC01E553FF4F72
:1005B000249189549F4FFC0184918823D1F090E0CD
:1005C000880F991FFC01ED55FF4FA591B491FC01D7
:1005D000E355FF4FC591D491623071F49FB7F89401
:1005E0003C91822F809583238C93E8812E2B288346
:1005F0009FBFDF91CF9108958FB7F894EC912E2B88
:100600002C938FBFF6CF806480937C0080917A001A
:10061000806480937A0080917A0086FDFCCF80917F
:1006200078009091790008953FB7F89480913F0148
:1006300090914001A0914101B091420126B5A89B43
:1006400005C02F3F19F00196A11DB11D3FBFBA2F64
:10065000A92F982F8827BC01CD01620F711D811D24
:10066000911D42E0660F771F881F991F4A95D1F7A9
:1006700008958F929F92AF92BF92CF92DF92EF92A6
:10068000FF924B015C010E9414036B017C010E94EC
:1006900014036C197D098E099F09683E734081051A
:1006A0009105A8F321E0821A9108A108B10888EE0B
:1006B000C80E83E0D81EE11CF11C81149104A10432
:1006C000B10429F7FF90EF90DF90CF90BF90AF90EB
:1006D0009F908F900895089590E080E00895CF93C3
:1006E000DF93EC0160E08E810E94860261E08E81E2
:1006F0000E94860260E08E810E9486028BE891E073
:100700000197F1F7DF91CF910895CF92DF92EF92A9
:10071000FF920F931F93CF93DF936C017C0187E0CF
:10072000E80EF11CD0E0C0E0062F10E0B8010C2E5E
:1007300002C0759567950A94E2F76170F70181919F
:100740007F010E9486022196C430D10579F7C60147
:10075000DF91CF911F910F91FF90EF90DF90CF909D
:100760000C946F03CF92DF92EF92FF920F931F933F
:10077000CF93DF93EC01F62E642F8C810E948602CA
:100780008D818F3F19F060E00E9486020F2D10E0EE
:100790008F8584FF25C06E0187E0C80ED11CF12C27
:1007A000E12CB8010E2C02C0759567950A94E2F70A
:1007B0006170F60181916F010E948602FFEFEF1ACE
:1007C000FF0A88E0E816F10461F7CE01DF91CF91CE
:1007D0001F910F91FF90EF90DF90CF900C946F03DB
:1007E000B80184E0759567958A95E1F7CE010E947E
:1007F00085036F2DCE01DF91CF911F910F91FF9057
:10080000EF90DF90CF900C94850340E0682F87E451
:1008100092E00C94B20381E00E9405048BE39FE117
:100820000197F1F70895CF93DF93823029F49091E7
:10083000560298609093560280935A0210925B027F
:1008400080E480935C0280E180935D0280E5809388
:100850005E0261E080914B020E94D20280914C02C4
:100860008F3F19F061E00E94D20261E080914D0259
:100870000E94D202C7E4D2E09E0127543240809108
:10088000560284FD0BC084E090E0219628173907BA
:1008900044F461E08E810E94D202EECF88E090E0C5
:1008A000F4CF8BE39DE00197F1F760E080914B027C
:1008B0000E94860260E080914D020E948602809133
:1008C0004C028F3F19F060E00E9486028091560230
:1008D00084FD34C063E087E492E00E948503CBE4AA
:1008E000D6E4CE010197F1F763E087E492E00E943D
:1008F00085032197F1F763E087E492E00E94850386
:1009000083E592E00197F1F762E087E492E00E94CC
:1009100085038091560280620E94050484E08093E2
:1009200057028CE00E9405040E940B0482E0809331
:10093000580286E0DF91CF910C94050480620E94FA
:1009400005048BE496E40197F1F7809156028062EA
:100950000E94050483E592E00197F1F78091560229
:1009600080620E940504D5CF90915A02891710F039
:100970008FEF890FE82FF0E0E95BFD4F84898068F5
:100980000C94050441E00E94B20381E090E00895D8
:10099000FB0101900020E9F73197AF01461B570B8F
:1009A000DC01ED91FC910280F381E02D0994CF935D
:1009B000DF93BC018EE591E00E945501EC016CE2F1
:1009C00071E08EE591E00E94C8048C0F9D1FDF91BD
:1009D000CF910895CF93909145019817B1F0C82F0A
:1009E0006FE970E08EE591E00E945501C0934501EA
:1009F0006C2F8BE00E94860288E990E0C11102C052
:100A00008BE990E0CF910C94D704CF910895CF93C8
:100A1000909144019817B1F0C82F64E970E08EE519
:100A200091E00E945501C09344016C2F8CE00E941C
:100A300086028DE890E0C11102C080E990E0CF917C
:100A40000C94D704CF910895CF93909143019817B8
:100A5000B1F0C82F69E870E08EE591E00E94550181
:100A6000C09343016C2F8DE00E94860282E890E0E3
:100A7000C11102C085E890E0CF910C94D704CF91CA
:100A8000089581E090E09093030180930201909398
:100A9000050180930401109247011092460180E005
:100AA0000E9424058091560190915701A091580110
:100AB000B0915901892B8A2B8B2B09F457C081E007
:100AC0000E94070580E00E94EA0410920E02109234
:100AD0000F02109210021092110210921A0210923C
:100AE0001B0210921C0210921D0210921E02109204
:100AF0001F021092200210922102109222021092E4
:100B000023021092240210922D0210922E021092B3
:100B10002F02109230021092310210923202109283
:100B20003302109234021092350210923602109263
:100B3000370210924002109241021092420210922B
:100B40004302109244021092450210924602109203
:100B500048011092490110924A0110924B011092E3
:100B60004C0110924D0110925D01089580E0A8CFD4
:100B70008F929F92AF92BF92EF92FF920F931F932B
:100B8000CF93DF93CDB7DEB7A1970FB6F894DEBF52
:100B90000FBECDBF7C01FA01CB0119A2223008F4AF
:100BA0002AE08E010F5D1F4F822E912CB12CA12CBB
:100BB000BF01A50194010E94320EF901CA016A30F9
:100BC0000CF5605DD8016E938D01232B242B252B12
:100BD00079F790E080E0109721F0BD01C7010E94F5
:100BE000C804A1960FB6F894DEBF0FBECDBFDF914B
:100BF000CF911F910F91FF90EF90BF90AF909F907A
:100C00008F900895695CDECFCF93DF93AB01BC0179
:100C10002AE08EE591E00E94B805EC016CE271E0FB
:100C20008EE591E00E94C8048C0F9D1FDF91CF914B
:100C30000895CF93DF93EC018A89882321F080E027
:100C4000DF91CF9108952FB7F89480913B01909157
:100C50003C01A0913D01B0913E012FBF48815981D7
:100C60006A817B81841B950BA60BB70B88879987BC
:100C7000AA87BB874C815D816E817F818417950730
:100C8000A607B707E0F268E770E08EE591E00E9402
:100C90005501688579858A859B850E9404068C812B
:100CA0009D81AE81BF8188879987AA87BB8781E0B4
:100CB000C7CFCF93DF93FC01208921111EC0EC0127
:100CC0002FB7F89480913B0190913C01A0913D0198
:100CD000B0913E012FBF80839183A283B38361E7EC
:100CE00070E08EE591E00E945501688179818A81EA
:100CF0009B810E94040681E0888BDF91CF9108954B
:100D0000CF92DF92EF92FF920F931F93CF93DF93D7
:100D1000EC016A017B01E881F9810190F081E02D0D
:100D20006DE209958C0144275527BA014C195D09DC
:100D30006E097F092AE0CE010E94B805800F911F3D
:100D4000DF91CF911F910F91FF90EF90DF90CF90A7
:100D50000895CF93DF93AC01990F660B770B77FF64
:100D600010C08EE591E00E948006EC016CE271E01B
:100D70008EE591E00E94C8048C0F9D1FDF91CF91FA
:100D800008952AE08EE591E00E94B805EECFCF935A
:100D9000DF93EC014C835D836E837F83188219821D
:100DA0001A821B821C861D861E861F86188A198A37
:100DB0001A8A68E670E08EE591E00E9455018C8108
:100DC0009D81DF91CF910C94A906AB01770F660B43
:100DD000770B77FD0C9480062AE00C94B805DF921F
:100DE000EF92FF920F931F93CF93DF93EB01890153
:100DF0007A01E20EF31E0E151F05A1F0C11584E065
:100E0000D80780F4F999FECFF801D1908F01CE0177
:100E10000E941C0ED81621F06D2DCE010E94240ECA
:100E20002196E9CFDF91CF911F910F91FF90EF9025
:100E3000DF900895EF92FF920F931F93CF93DF936C
:100E40008A01020F131FE9017B01E21AF30AC0179E
:100E5000D10769F0C7018C0F9D1F811524E092070F
:100E600030F4F999FECF0E941C0E8993F0CFDF91E8
:100E7000CF911F910F91FF90EF9008951F920F92C5
:100E80000FB60F9211242F933F934F935F936F935D
:100E90007F938F939F93AF93BF93EF93FF938EE5D1
:100EA00091E00E94F701FF91EF91BF91AF919F9167
:100EB0008F917F916F915F914F913F912F910F9003
:100EC0000FBE0F901F9018951F920F920FB60F92A2
:100ED00011242F938F939F93EF93FF93E0916E01D3
:100EE000F0916F018081E0917401F091750182FDB4
:100EF0001BC09081809177018F5F8F732091780163
:100F0000821741F0E0917701F0E0E25AFE4F958FB1
:100F100080937701FF91EF919F918F912F910F9087
:100F20000FBE0F901F9018958081F4CF1F920F92E3
:100F30000FB60F9211242F933F938F939F93AF93EC
:100F4000BF9380913B0190913C01A0913D01B091F4
:100F50003E0130913A0123E0230F2D3758F50196D9
:100F6000A11DB11D20933A0180933B0190933C0158
:100F7000A0933D01B0933E0180913F0190914001CB
:100F8000A0914101B09142010196A11DB11D809334
:100F90003F0190934001A0934101B0934201BF9162
:100FA000AF919F918F913F912F910F900FBE0F9016
:100FB0001F90189526E8230F0296A11DB11DD2CFD0
:100FC00040E050E0BA010C94C706EEE5F1E0138270
:100FD000128288EE93E0A0E0B0E084839583A6833C
:100FE000B78382E191E09183808385EC90E09587DF
:100FF000848784EC90E09787868780EC90E0918BE3
:10100000808B81EC90E0938B828B82EC90E0958BCF
:10101000848B86EC90E0978B868B118E128E138ECC
:10102000148EE7E4F2E01382128284E291E091836D
:10103000808388E084838FEF858389E0868384E0E2
:10104000878385E0808786E0818787E082871386B3
:10105000148615861686178681E00E94130484E3A1
:1010600092E00E94E00781E292E00E94E0078EE0B9
:1010700092E00E94E0078BEF91E00C94E0077894F7
:1010800084B5826084BD84B5816084BD85B582608D
:1010900085BD85B5816085BD80916E00816080933E
:1010A0006E001092810080918100826080938100A7
:1010B00080918100816080938100809180008160B7
:1010C000809380008091B10084608093B100809112
:1010D000B00081608093B00080917A00846080933A
:1010E0007A0080917A00826080937A0080917A0001
:1010F000816080937A0080917A00806880937A0082
:101100001092C100E0916E01F0916F0182E0808346
:10111000E0916A01F0916B011082E0916C01F09115
:101120006D0180E1808310927601E0917201F0916F
:10113000730186E08083E0917001F09171018081FC
:1011400080618083E0917001F091710180818860FD
:101150008083E0917001F0917101808180688083CB
:10116000E0917001F091710180818F7D808361E059
:101170008AE00E94D20261E08DE00E94D20261E02A
:101180008CE00E94D20261E08BE00E94D20262E019
:1011900081E00E94D20282E00E9413046FE271E0BB
:1011A0008EE591E00E94C8046CE271E08EE591E06A
:1011B0000E94C80410925C012EE431E04FE050E040
:1011C00070E060E080E091E00E941A0782E090E029
:1011D000A0E0B0E080934E0190934F01A0935001A6
:1011E000B09351018093520190935301A093540105
:1011F000B09355018093560190935701A0935801E5
:10120000B093590184EF91E090935B0180935A0170
:1012100081E080935C012EE431E04FE050E070E02B
:1012200060E080E091E00E94EF066FEF70E08EE5F5
:1012300091E00E94550160914E0170914F018091A3
:101240005001909151010E9404066BEF70E08EE511
:1012500091E00E945501609152017091530180917B
:101260005401909155010E94040667EF70E08EE5ED
:1012700091E00E9455016091560170915701809153
:101280005801909159010E94040663EF70E08EE5C9
:1012900091E00E94550180915A0190915B010E945A
:1012A000A90610924501109244011092430161E099
:1012B0008AE00E94860260E08DE00E94860260E083
:1012C0008CE00E94860260E08BE00E9486020E9411
:1012D00041050E940B0480E00E94B40463E071E0C9
:1012E00087E492E00E94550160ED77E080E090E0B5
:1012F0000E9439030E940B0420914E0130914F014E
:101300004091500150915101A8EEB3E00E94540E5B
:10131000AB01BC0184E392E00E94C70620914E011C
:1013200030914F014091500150915101A8EEB3E02E
:101330000E94540EAB01BC0181E292E00E94C706FC
:101340002091560130915701409158015091590117
:10135000A8EEB3E00E94540EAB01BC018EE092E017
:101360000E94C70644EF51E060E070E08BEF91E02F
:101370000E94C70622242394312C02E010E0F4E0FE
:101380004F2E512C55E0E52EF12C7724739467E015
:10139000C62ED12C76E0872E912CD0E0C0E080E0E4
:1013A0000E94030333E0A32EB12C8C339105ECF0A3
:1013B000AA24A394B12C883C9105BCF0803921E08B
:1013C000920784F0883522E092070CF47AC045E059
:1013D000A42EB12C8032934044F0B12CA12C05C036
:1013E000E501DDCF92E0A92EB12C6AE070E080E04B
:1013F00090E00E943903CA15DB0591F72097B1F000
:10140000FE01E85BFE4F808181110AC0708262E1BB
:1014100071E08EE591E00E945501CE010E94A9067F
:1014200068EC70E080E090E00E943903C091040114
:10143000D0910501C130D10509F0B1C280E00E9410
:10144000B40480910201909103018130910509F06B
:10145000BEC080914901109249018823B1F168E131
:1014600071E08EE591E00E945501809146019091D6
:10147000470101968330910509F03FC01092470162
:101480001092460166EA71E087E492E00E945501FD
:1014900081E00E94B404809146019091470181301F
:1014A000910509F48EC08230910509F48DC060EA7F
:1014B00071E0892B09F052C087E492E00E94550147
:1014C0004DC084E0A82EB12C90CF80914A0110929B
:1014D0004A018823B9F066E171E08EE591E00E944F
:1014E00055018091460190914701009729F410938E
:1014F000470100934601C6CF01979093470180931F
:101500004601C0CF80914C0110924C01882309F410
:10151000B9CF64E171E08EE591E00E9455018091C0
:101520004601909147018130910529F18230910562
:10153000A1F1892B99F410930501009304010E94F5
:101540000B0480E00E94B40460ED71E087E492E057
:101550000E94550185EC91E00E94D70480E090E064
:10156000892B09F41ACF0E94E301882309F40ACFDA
:101570000E94000007CF10930301009302010E9414
:101580000B0480E00E94B4046FEB71E087E492E00A
:101590000E94550189EB91E0DFCF83E090E09093CA
:1015A0000301809302010E940B0480E00E94B404B6
:1015B00062EB71E087E492E00E9455018BEA91E0D2
:1015C000CBCF6AE971E078CF63E971E075CF833002
:1015D000910509F068C081E00E9403035C0180E08E
:1015E0000E94B4046BE871E087E492E00E94550128
:1015F00068E871E08EE591E00E945501C5010E9406
:10160000A906B50187E492E00E94E50681E00E9408
:10161000B4048091490110924901882371F08091AE
:10162000430187250E9424058091430161E871E010
:10163000811142CF6AE771E03FCF80914A01109259
:101640004A01882371F08091440187250E94070593
:101650008091440163E771E081112ECF6CE671E067
:101660002BCF80914B0110924B01882371F0809118
:10167000450187250E94EA048091450165E671E0F5
:1016800081111ACF6EE571E017CF80914C01109255
:101690004C01882309F462CFD0930301C093020167
:1016A0000E940B045BCF8230910509F05FC06CE4AF
:1016B00071E087E492E00E94550181E00E94B40449
:1016C00040914E0150914F01609150017091510134
:1016D0002AE087E492E00E94B805809149011092C7
:1016E00049018823A1F080914E0190914F01A09172
:1016F0005001B09151010196A11DB11D80934E0181
:1017000090934F01A0935001B093510127CF809146
:101710004A0110924A01882389F080914E019091EC
:101720004F01A0915001B09151010097A105B10561
:1017300009F414CF0197A109B109E0CF80914C01C0
:1017400010924C01882309F409CF50920301409272
:1017500002010E940B0460914E0170914F01809133
:101760005001909151010E940406F8CE84309105F9
:1017700009F05DC06AE371E087E492E00E945501E0
:1017800081E00E94B4044091520150915301609154
:101790005401709155012AE087E492E00E94B80557
:1017A00080914901109249018823A1F08091520152
:1017B00090915301A0915401B09155010196A11D42
:1017C000B11D8093520190935301A0935401B093A3
:1017D0005501C4CE80914A0110924A01882389F0B4
:1017E0008091520190915301A0915401B091550103
:1017F0000097A105B10509F4B1CE0197A109B1097E
:10180000E0CF80914C0110924C01882309F4A6CEC0
:10181000F0920301E09202010E940B0460915201D8
:101820007091530180915401909155019CCF853066
:10183000910509F05DC06CE271E087E492E00E94DE
:10184000550181E00E94B404409156015091570126
:1018500060915801709159012AE087E492E00E945A
:10186000B80580914901109249018823A1F0809127
:10187000560190915701A0915801B09159010196DC
:10188000A11DB11D8093560190935701A09358015B
:10189000B093590163CE80914A0110924A01882386
:1018A00089F08091560190915701A0915801B09113
:1018B00059010097A105B10509F450CE0197A1097E
:1018C000B109E0CF80914C0110924C01882309F4BA
:1018D00045CE90920301809202010E940B04609118
:1018E00056017091570180915801909159013BCF59
:1018F000069709F033CE6AE171E087E492E00E9436
:10190000550181E00E94B40460915A0170915B011D
:1019100087E492E00E94E506809149011092490116
:10192000882379F080915A0190915B018F3F23E0E9
:1019300092070CF013CEC29690935B0180935A01EC
:101940000DCE80914A0110924A01882351F0809176
:101950005A0190915B01181619060CF0FFCDC29741
:10196000EBCF80914C0110924C01882309F4F6CD05
:1019700030920301209202010E940B042EE431E018
:101980004FE050E070E060E080E091E00E94EF0600
:1019900080915A0190915B010E94A906DFCDC2306F
:1019A000D10579F581E00E94070581E00E942405B8
:1019B00080E00E94EA0484E392E00E94590684E3F6
:1019C00092E00E941906882309F4C8CD80E00E94A5
:1019D000070580E00E94240580E00E94EA0483E07D
:1019E00090E0909305018093040189E492E00E94C5
:1019F000D7040E940B0480E00E94B4046DE372E0FF
:101A00005BCDC330D10511F580E00E94070581E070
:101A10000E94240580E00E94EA0481E292E00E9494
:101A2000590681E292E00E941906882309F496CDB6
:101A300080E00E94070580E00E94240580E00E946B
:101A4000EA04509205014092040188CDC430D105CA
:101A5000D9F481E00E94070580E00E94240581E01E
:101A60000E94EA04F0920501E092040110925D01E7
:101A700080E392E00E94D7040E940B0480E00E9461
:101A8000B40463E272E018CDC530D10509F09FC0FF
:101A900081E00E94070580E00E94240581E00E9409
:101AA000EA048EE092E00E94590680915D01811166
:101AB00011C0B0904B0110924B01BB2091F170927C
:101AC0005D018CED91E00E94D70480915D01882337
:101AD00009F444CD80E00E94240580E00E94EA04DD
:101AE0008091560190915701A0915801B0915901F0
:101AF000892B8A2B8B2B09F457C080E00E940705A5
:101B0000909205018092040187E192E00E94D7043F
:101B10000E940B0480E00E94B4046DE072E0CCCC23
:101B2000BA2C81E00E940303EC018EE092E00E9457
:101B30001906882319F165EE71E08EE591E00E94A7
:101B40005501CE010E94A90610920E0210920F02BA
:101B5000109210021092110210921A0210921B029F
:101B600010921C0210921D0210921E0210921F026F
:101B7000109220028EE092E00E945906AA24A394BB
:101B800080915A0190915B01C817D9070CF0A12CE4
:101B90006AE070E080E090E00E943903BA10C0CFA4
:101BA000BB2009F492CF8BCF81E00E940705D09231
:101BB0000501C092040181E092E00E94D7040E94D6
:101BC0000B0480E00E94B40464EF71E075CCC63071
:101BD000D10521F580E00E94070580E00E942405E0
:101BE00080E00E94EA048EE092E00E9459068EE0B6
:101BF00092E00E941906882309F4B0CC81E00E948B
:101C0000070580E00E94240580E00E94EA04D0924B
:101C10000501C09204018FEE91E09ECC279709F058
:101C20009DCC0E944105309205012092040189EE6D
:101C300091E00E94D70434CDF999FECF92BD81BDC9
:101C4000F89A992780B50895262FF999FECF1FBAE3
:101C500092BD81BD20BD0FB6F894FA9AF99A0FBED5
:101C600001960895A1E21A2EAA1BBB1BFD010DC00F
:101C7000AA1FBB1FEE1FFF1FA217B307E407F5073C
:101C800020F0A21BB30BE40BF50B661F771F881F18
:101C9000991F1A9469F760957095809590959B01AE
:101CA000AC01BD01CF0108950E94650EA59F900D66
:101CB000B49F900DA49F800D911D11240895EE0FE7
:101CC000FF1F0590F491E02D0994A29FB001B39FEE
:101CD000C001A39F700D811D1124911DB29F700D35
:0C1CE000811D1124911D0895F894FFCF80
:101CEC000A0101000100000000001A07EF060000C5
:101CFC00000019027901A6016602D701B501C901DC
:101D0C0000000000C20479016C036B030D0A004C47
:0A1D1C006F616456616C7565730019
:00000001FF
