:100000000C9429010C9451010C9451010C94510150
:100010000C9451010C9451010C9451010C94510118
:100020000C9451010C9451010C9451010C94510108
:100030000C9451010C9451010C9451010C945101F8
:100040000C947B070C9451010C9449070C942307E2
:100050000C9451010C9451010C9451010C945101D8
:100060000C9451010C94510153657454696D653AB7
:100070000073746172743A0074696D654F766572CD
:100080003A006F6E006F66660047453A006F6E007B
:100090006F66660047413A006F6E006F6666004209
:1000A000453A0000000000240027002A000000005C
:1000B00000250028002B00040404040404040402A6
:1000C00002020202020303030303030102040810F5
:1000D00020408001020408102001020408102000C2
:1000E00000000800020100000304070000000000F7
:1000F000000000746F3A0062523A0067463A0067A7
:10010000533A004272617576657265696E2E6F7240
:10011000670062004F00440055004175736C6F65C5
:1001200073652053636877656C6C6500426965721E
:100130002052756865205B735D00434F3220467521
:10014000656C6C7A656974205B735D00434F322087
:10015000537075656C7A656974205B735D00424508
:100160003A4F46460042453A204F4E0047413A4FEB
:1001700046460047413A204F4E0047453A4F4646D3
:100180000047453A204F4E004D616E75616C004D41
:10019000616E75616C0053657475700053746172A3
:1001A00074004D656E75004D414E55414C004D41FA
:1001B0004E55414C005345545550005345545550ED
:1001C00000434F32535055454C454E00434F32206B
:1001D000537075656C656E0053656E736F724F6E0C
:1001E0000074763A00535441525400456E646500E1
:1001F000466C617363686520566F6C6C00464C41B9
:1002000053434845564F4C4C004269657220527525
:10021000686500464C4153434845564F4C4C00429C
:10022000696572204675656C6C656E004269657221
:10023000204675656C6C656E00434F3220467565CF
:100240006C6C656E00434F324655454C4C454E0034
:10025000CA0711241FBECFEFD8E0DEBFCDBF11E02B
:10026000A0E0B1E0EAEAFCE102C005900D92AA33F9
:10027000B107D9F722E0AAE3B1E001C01D92AF3582
:10028000B207E1F711E0C9E2D1E004C02197FE0115
:100290000E943E0EC832D107C9F70E9424080C9470
:1002A000530E0C940000EF92FF920F931F93CF9385
:1002B000DF938C017B01D0E0C0E0F701EC0FFD1F64
:1002C0006491662361F0D801ED91FC910190F08179
:1002D000E02DC8010995892B11F02196EECFCE01B2
:1002E000DF91CF911F910F91FF90EF900895AF9202
:1002F000BF92CF92DF92EF92FF920F931F93CF9313
:10030000DF936C017B018B01040F151FEB015E0174
:10031000AE18BF08C017D10759F06991D601ED9109
:10032000FC910190F081E02DC6010995892B79F7A8
:10033000C501DF91CF911F910F91FF90EF90DF905A
:10034000CF90BF90AF900895FC01538D448D252F21
:1003500030E0842F90E0821B930B541710F0CF965F
:10036000089501970895FC01918D828D981761F091
:10037000A28DAE0FBF2FB11D5D968C91928D9F5FA8
:100380009F73928F90E008958FEF9FEF0895FC0187
:10039000918D828D981731F0828DE80FF11D858D3A
:1003A00090E008958FEF9FEF0895FC01918D228DCD
:1003B000892F90E0805C9F4F821B91098F73992752
:1003C00008958EE591E00E94D50121E0892B09F482
:1003D00020E0822F089580E090E0892B29F00E9490
:1003E000E10181110C9400000895FC01A48DA80F77
:1003F000B92FB11DA35ABF4F2C91848D90E0019667
:100400008F739927848FA689B7892C93A089B18986
:100410008C91837080648C93938D848D981306C027
:100420000288F389E02D80818F7D80830895EF928B
:10043000FF920F931F93CF93DF93EC0181E0888F9E
:100440009B8D8C8D98131AC0E889F989808185FF6E
:1004500015C09FB7F894EE89FF896083E889F98910
:1004600080818370806480839FBF81E090E0DF9112
:10047000CF911F910F91FF90EF900895F62E0B8D65
:1004800010E00F5F1F4F0F731127E02E8C8D8E1120
:100490000CC00FB607FCFACFE889F989808185FF87
:1004A000F5CFCE010E94F501F1CFEB8DEC0FFD2FC2
:1004B000F11DE35AFF4FF0829FB7F8940B8FEA8942
:1004C000FB8980818062CFCFCF93DF93EC01888D51
:1004D0008823B9F0AA89BB89E889F9898C9185FDBF
:1004E00003C0808186FD0DC00FB607FCF7CF8C914D
:1004F00085FFF2CF808185FFEDCFCE010E94F5010F
:10050000E9CFDF91CF91089590E0FC01E152FF4FD8
:100510002491FC01E553FF4F3491FC01E954FF4F56
:10052000E491EE23C9F0222339F0233001F1A8F43D
:10053000213019F1223029F1F0E0EE0FFF1FE355D1
:10054000FF4FA591B4918FB7F894EC91611126C03B
:1005500030953E233C938FBF08952730A9F0283073
:10056000C9F0243049F7809180008F7D03C08091CD
:1005700080008F7780938000DFCF84B58F7784BD34
:10058000DBCF84B58F7DFBCF8091B0008F778093D8
:10059000B000D2CF8091B0008F7DF9CF3E2BDACF63
:1005A000CF93DF9390E0FC01E553FF4F24918954F2
:1005B0009F4FFC0184918823D1F090E0880F991F10
:1005C000FC01ED55FF4FA591B491FC01E355FF4FA0
:1005D000C591D49161110EC09FB7F8948C91E22F10
:1005E000E0958E238C932881E223E8839FBFDF91DF
:1005F000CF9108958FB7F894EC91E22BEC938FBFD5
:10060000F6CF806480937C0080917A008064809330
:100610007A0080917A0086FDFCCF809178009091DD
:10062000790008953FB7F89480913F01909140017F
:10063000A0914101B091420126B5A89B05C02F3F72
:1006400019F00196A11DB11D3FBFBA2FA92F982FF8
:100650008827BC01CD01620F711D811D911D42E0F3
:10066000660F771F881F991F4A95D1F708958F92BB
:100670009F92AF92BF92CF92DF92EF92FF924B0187
:100680005C010E9412036B017C010E9412036C1931
:100690007D098E099F09683E734081059105A8F385
:1006A00021E0821A9108A108B10888EEC80E83E003
:1006B000D81EE11CF11C81149104A104B10429F796
:1006C000FF90EF90DF90CF90BF90AF909F908F9072
:1006D0000895089590E080E00895CF93DF93EC01B2
:1006E00060E08E810E94840261E08E810E9484021B
:1006F00060E08E810E9484028BE891E00197F1F71F
:10070000DF91CF910895CF92DF92EF92FF920F93F6
:100710001F93CF93DF936C017C0187E0E80EF11CFF
:10072000D0E0C0E0062F10E0B8010C2E02C0759595
:1007300067950A94E2F76170F70181917F010E9449
:1007400084022196C430D10579F7C601DF91CF919B
:100750001F910F91FF90EF90DF90CF900C946D035D
:10076000CF92DF92EF92FF920F931F93CF93DF937D
:10077000EC01F62E642F8C810E9484028D818F3FC4
:1007800019F060E00E9484020F2D10E08F8584FF35
:1007900025C06E0187E0C80ED11CF12CE12CB801F8
:1007A0000E2C02C0759567950A94E2F76170F60108
:1007B00081916F010E948402FFEFEF1AFF0A88E027
:1007C000E816F10461F7CE01DF91CF911F910F91EF
:1007D000FF90EF90DF90CF900C946D03B80184E010
:1007E000759567958A95E1F7CE010E9483036F2D79
:1007F000CE01DF91CF911F910F91FF90EF90DF908D
:10080000CF900C94830340E0682F87E492E00C942F
:10081000B00381E00E9403048BE39FE10197F1F7AD
:100820000895CF93DF93823029F490915602986017
:100830009093560280935A0210925B0280E4809358
:100840005C0280E180935D0280E580935E0261E05E
:1008500080914B020E94D00280914C028F3F19F090
:1008600061E00E94D00261E080914D020E94D002BE
:10087000C7E4D2E09E01275432408091560284FDA5
:100880000BC084E090E021962817390744F461E01A
:100890008E810E94D002EECF88E090E0F4CF8BE30F
:1008A0009DE00197F1F760E080914B020E94840285
:1008B00060E080914D020E94840280914C028F3F43
:1008C00019F060E00E9484028091560284FD34C0D9
:1008D00063E087E492E00E948303CBE4D6E4CE0198
:1008E0000197F1F763E087E492E00E948303219788
:1008F000F1F763E087E492E00E94830383E592E0EE
:100900000197F1F762E087E492E00E94830380910F
:10091000560280620E94030484E0809357028CE0B8
:100920000E9403040E94090482E08093580286E03A
:10093000DF91CF910C94030480620E9403048BE446
:1009400096E40197F1F78091560280620E940304B9
:1009500083E592E00197F1F78091560280620E9450
:100960000304D5CF90915A02891710F08FEF890FA9
:10097000E82FF0E0E95BFD4F848980680C94030464
:1009800041E00E94B00381E090E00895FB010190F6
:100990000020E9F73197AF01461B570BDC01ED91C1
:1009A000FC910280F381E02D0994CF93DF93BC0189
:1009B0008EE591E00E945301EC016CE271E08EE55E
:1009C00091E00E94C6048C0F9D1FDF91CF91089586
:1009D000CF93909145019817B1F0C82F6FE970E05F
:1009E0008EE591E00E945301C09345016C2F8BE08E
:1009F0000E94840288E990E0C11102C08BE990E076
:100A0000CF910C94D504CF910895CF939091440148
:100A10009817B1F0C82F64E970E08EE591E00E946C
:100A20005301C09344016C2F8CE00E9484028DE836
:100A300090E0C11102C080E990E0CF910C94D50400
:100A4000CF910895CF93909143019817B1F0C82F9B
:100A500069E870E08EE591E00E945301C093430184
:100A60006C2F8DE00E94840282E890E0C11102C0E8
:100A700085E890E0CF910C94D504CF91089581E062
:100A800090E090930301809302019093050180937D
:100A90000401109247011092460180E00E94220555
:100AA0008091560190915701A0915801B091590140
:100AB000892B8A2B8B2B09F457C081E00E940505F6
:100AC00080E00E94E80410920E0210920F02109231
:100AD00010021092110210921A0210921B02109230
:100AE0001C0210921D0210921E0210921F02109200
:100AF00020021092210210922202109223021092E0
:100B0000240210922D0210922E0210922F021092A7
:100B1000300210923102109232021092330210927F
:100B2000340210923502109236021092370210925F
:100B3000400210924102109242021092430210921F
:100B400044021092450210924602109248011092FF
:100B5000490110924A0110924B0110924C011092DF
:100B60004D0110925D01089580E0A8CF8F929F9271
:100B7000AF92BF92EF92FF920F931F93CF93DF93A9
:100B8000CDB7DEB7A1970FB6F894DEBF0FBECDBFCD
:100B90007C01FA01CB0119A2223008F42AE08E016F
:100BA0000F5D1F4F822E912CB12CA12CBF01A501EE
:100BB00094010E94110EF901CA016A300CF5605DC2
:100BC000D8016E938D01232B242B252B79F790E0F0
:100BD00080E0109721F0BD01C7010E94C604A196D4
:100BE0000FB6F894DEBF0FBECDBFDF91CF911F913E
:100BF0000F91FF90EF90BF90AF909F908F900895CE
:100C0000695CDECFCF93DF93AB01BC012AE08EE5B8
:100C100091E00E94B605EC016CE271E08EE591E096
:100C20000E94C6048C0F9D1FDF91CF910895CF9332
:100C3000DF93EC018A89882321F080E0DF91CF9156
:100C400008952FB7F89480913B0190913C01A091B9
:100C50003D01B0913E012FBF488159816A817B815E
:100C6000841B950BA60BB70B88879987AA87BB8730
:100C70004C815D816E817F8184179507A607B70738
:100C8000E0F268E770E08EE591E00E94530168852C
:100C900079858A859B850E9402068C819D81AE8123
:100CA000BF8188879987AA87BB8781E0C7CFCF9309
:100CB000DF93FC01208921111EC0EC012FB7F894AD
:100CC00080913B0190913C01A0913D01B0913E018A
:100CD0002FBF80839183A283B38361E770E08EE5A9
:100CE00091E00E945301688179818A819B810E94F1
:100CF000020681E0888BDF91CF910895CF92DF9239
:100D0000EF92FF92CF93DF936C01990FEE08FF08EB
:100D1000F7FE23C06DE28EE591E00E941702EC0120
:100D200044275527BA014C195D096E097F092AE04D
:100D30008EE591E00E94B605C80FD91F6CE271E004
:100D40008EE591E00E94C6048C0F9D1FDF91CF912C
:100D5000FF90EF90DF90CF9008952AE0B701A601B1
:100D60008EE591E00E94B605EC01E8CFCF93DF93CA
:100D7000EC014C835D836E837F83188219821A8213
:100D80001B821C861D861E861F86188A198A1A8A4F
:100D900068E670E08EE591E00E9453018C819D81B0
:100DA000DF91CF910C947E06DF92EF92FF920F932A
:100DB0001F93CF93DF93EB0189017A01E20EF31EBB
:100DC0000E151F05A1F0C11584E0D80780F4F9992C
:100DD000FECFF801D1908F01CE010E94FB0DD816F5
:100DE00021F06D2DCE010E94030E2196E9CFDF91F7
:100DF000CF911F910F91FF90EF90DF900895EF92A8
:100E0000FF920F931F93CF93DF938A01020F131F5B
:100E1000E9017B01E21AF30AC017D10769F0C701A3
:100E20008C0F9D1F811524E0920730F4F999FECFB5
:100E30000E94FB0D8993F0CFDF91CF911F910F910D
:100E4000FF90EF9008951F920F920FB60F9211240A
:100E50002F933F934F935F936F937F938F939F93C2
:100E6000AF93BF93EF93FF938EE591E00E94F5015E
:100E7000FF91EF91BF91AF919F918F917F916F9172
:100E80005F914F913F912F910F900FBE0F901F9048
:100E900018951F920F920FB60F9211242F938F93D4
:100EA0009F93EF93FF93E0916E01F0916F0180812A
:100EB000E0917401F091750182FD1BC090818091D9
:100EC00077018F5F8F7320917801821741F0E09155
:100ED0007701F0E0E25AFE4F958F80937701FF9102
:100EE000EF919F918F912F910F900FBE0F901F90B8
:100EF00018958081F4CF1F920F920FB60F92112494
:100F00002F933F938F939F93AF93BF9380913B0118
:100F100090913C01A0913D01B0913E0130913A0188
:100F200023E0230F2D3758F50196A11DB11D209305
:100F30003A0180933B0190933C01A0933D01B09313
:100F40003E0180913F0190914001A0914101B091FB
:100F500042010196A11DB11D80933F019093400174
:100F6000A0934101B0934201BF91AF919F918F91A6
:100F70003F912F910F900FBE0F901F90189526E86C
:100F8000230F0296A11DB11DD2CF40E050E0BA015F
:100F90000C94B606EEE5F1E01382128288EE93E03F
:100FA000A0E0B0E084839583A683B78382E191E0DB
:100FB0009183808385EC90E09587848784EC90E032
:100FC0009787868780EC90E0918B808B81EC90E016
:100FD000938B828B82EC90E0958B848B86EC90E0F7
:100FE000978B868B118E128E138E148EE7E4F2E0AF
:100FF0001382128284E291E09183808388E084836B
:101000008FEF858389E0868384E0878385E080870E
:1010100086E0818787E08287138614861586168688
:10102000178681E00E94110484E392E00E94C507C4
:1010300081E292E00E94C5078EE092E00E94C5071F
:101040008BEF91E00C94C507789484B5826084BDE1
:1010500084B5816084BD85B5826085BD85B58160BC
:1010600085BD80916E00816080936E00109281003A
:1010700080918100826080938100809181008160F5
:1010800080938100809180008160809380008091B6
:10109000B10084608093B1008091B0008160809342
:1010A000B00080917A00846080937A0080917A0009
:1010B000826080937A0080917A00816080937A00C8
:1010C00080917A00806880937A001092C100E0914C
:1010D0006E01F0916F0182E08083E0916A01F091EE
:1010E0006B011082E0916C01F0916D0180E18083D1
:1010F00010927601E0917201F091730186E0808395
:10110000E0917001F0917101808180618083E091B4
:101110007001F0917101808188608083E09170019D
:10112000F0917101808180688083E0917001F0917D
:10113000710180818F7D808361E08AE00E94D0020E
:1011400061E08DE00E94D00261E08CE00E94D0025C
:1011500061E08BE00E94D00260E081E00E94D0025A
:1011600082E00E9411046FE271E08EE591E00E943E
:10117000C6046CE271E08EE591E00E94C604109214
:101180005C012EE431E04FE050E070E060E080E090
:1011900091E00E94FF0682E090E0A0E0B0E0809342
:1011A0004E0190934F01A0935001B0935101809351
:1011B000520190935301A0935401B0935501809331
:1011C000560190935701A0935801B093590184EFB1
:1011D00091E090935B0180935A0181E080935C01E0
:1011E0002EE431E04FE050E070E060E080E091E01C
:1011F0000E94D4066FEF70E08EE591E00E945301EB
:1012000060914E0170914F01809150019091510178
:101210000E9402066BEF70E08EE591E00E945301A0
:101220006091520170915301809154019091550148
:101230000E94020667EF70E08EE591E00E94530184
:101240006091560170915701809158019091590118
:101250000E94020663EF70E08EE591E00E94530168
:1012600080915A0190915B010E947E061092450187
:10127000109244011092430161E08AE00E948402CE
:101280000E943F050E94090480E00E94B20463E0CE
:1012900071E087E492E00E94530160ED77E080E026
:1012A00090E00E9437030E94090420914E01309182
:1012B0004F014091500150915101A8EEB3E00E94BE
:1012C000330EAB01BC0184E392E00E94B60620918C
:1012D0004E0130914F014091500150915101A8EEC3
:1012E000B3E00E94330EAB01BC0181E292E00E94A8
:1012F000B606209156013091570140915801509106
:101300005901A8EEB3E00E94330EAB01BC018EE0A0
:1013100092E00E94B60644EF51E060E070E08BEF8F
:1013200091E00E94B60622242394312C02E010E0C2
:10133000E4E04E2E512C55E0E52EF12C77247394E9
:1013400067E0C62ED12CD0E0C0E080E00E9401030F
:1013500033E0832E912C8C339105ECF08824839418
:10136000912C883C9105BCF0803921E0920784F0F3
:10137000883522E092070CF47AC045E0842E912C47
:101380008032934044F0912C812C05C0E401DDCFE4
:1013900092E0892E912C6AE070E080E090E00E945B
:1013A0003703C815D90591F72097B1F0FE01E85B26
:1013B000FE4F808181110AC0708262E171E08EE58A
:1013C00091E00E945301CE010E947E0668EC70E01D
:1013D00080E090E00E943703C0910401D0910501A4
:1013E000C130D10509F0B8C280E00E94B2048091FA
:1013F0000201909103018130910509F0BEC08091F6
:101400004901109249018823B1F168E171E08EE54C
:1014100091E00E945301809146019091470101960D
:101420008330910509F03FC01092470110924601A8
:1014300062EA71E087E492E00E94530181E00E9439
:10144000B20480914601909147018130910509F4E1
:101450008EC08230910509F48DC06CE971E0892B52
:1014600009F052C087E492E00E9453014DC084E02D
:10147000882E912C90CF80914A0110924A018823A6
:10148000B9F066E171E08EE591E00E945301809130
:10149000460190914701009729F41093470100936A
:1014A0004601C6CF01979093470180934601C0CF74
:1014B00080914C0110924C01882309F4B9CF64E16A
:1014C00071E08EE591E00E94530180914601909178
:1014D00047018130910529F182309105A1F1892BD5
:1014E00099F410930501009304010E94090480E01F
:1014F0000E94B2046CEC71E087E492E00E94530118
:1015000081EC91E00E94D50480E090E0892B09F401
:101510001ACF0E94E101882309F40DCF0E94000038
:101520000ACF10930301009302010E94090480E096
:101530000E94B2046BEB71E087E492E00E945301D9
:1015400085EB91E0DFCF83E090E0909303018093FF
:1015500002010E94090480E00E94B2046EEA71E078
:1015600087E492E00E94530187EA91E0CBCF66E9DD
:1015700071E078CF6FE871E075CF8330910509F0A5
:1015800056C080E00E94B20468E871E087E492E00F
:101590000E94530181E00E94B2048091490110929F
:1015A0004901882371F08091430187250E9422051B
:1015B0008091430161E871E0811154CF6AE771E0E5
:1015C00051CF80914A0110924A01882371F0809195
:1015D000440187250E9405058091440163E771E07D
:1015E000811140CF6CE671E03DCF80914B011092AC
:1015F0004B01882371F08091450187250E94E80402
:101600008091450165E671E081112CCF6EE571E0B6
:1016100029CF80914C0110924C01882309F474CF9A
:10162000D0930301C09302010E9409046DCF823060
:10163000910509F05FC06CE471E087E492E00E94DC
:10164000530181E00E94B20440914E0150914F013C
:1016500060915001709151012AE087E492E00E946C
:10166000B60580914901109249018823A1F080912B
:101670004E0190914F01A0915001B09151010196FE
:10168000A11DB11D80934E0190934F01A093500175
:10169000B093510139CF80914A0110924A018823B9
:1016A00089F080914E0190914F01A0915001B0912D
:1016B00051010097A105B10509F426CF0197A109B1
:1016C000B109E0CF80914C0110924C01882309F4BC
:1016D0001BCF50920301409202010E9409046091C5
:1016E0004E0170914F0180915001909151010E94E3
:1016F00002060ACF8430910509F05DC06AE371E00B
:1017000087E492E00E94530181E00E94B20440917C
:1017100052015091530160915401709155012AE09A
:1017200087E492E00E94B605809149011092490138
:101730008823A1F08091520190915301A09154010E
:10174000B09155010196A11DB11D80935201909356
:101750005301A0935401B0935501D6CE80914A0114
:1017600010924A01882389F080915201909153018F
:10177000A0915401B09155010097A105B10509F45C
:10178000C3CE0197A109B109E0CF80914C0110921D
:101790004C01882309F4B8CEF0920301E0920201D3
:1017A0000E9409046091520170915301809154018B
:1017B000909155019CCF8530910509F05FC06CE296
:1017C00071E087E492E00E94530181E00E94B2043C
:1017D0004091560150915701609158017091590103
:1017E0002AE087E492E00E94B605809149011092B8
:1017F00049018823A1F08091560190915701A09151
:101800005801B09159010196A11DB11D8093560157
:1018100090935701A0935801B093590175CE8091D0
:101820004A0110924A01882389F0809156019091D3
:101830005701A0915801B09159010097A105B10538
:1018400009F462CE0197A109B109E0CF80914C0162
:1018500010924C01882309F457CE86E090E09093D3
:101860000301809302010E94090460915601709166
:101870005701809158019091590139CF069709F08D
:1018800043CE6AE171E087E492E00E94530181E077
:101890000E94B20480905A0190905B01092C000CC8
:1018A000AA08BB082AE0B501A401B7FE0EC041E0BA
:1018B0006DE287E492E00E94B00344275527BA0105
:1018C000481959096A097B092AE087E492E00E94D5
:1018D000B6058091490110924901882379F08091E1
:1018E0005A0190915B018F3F23E092070CF00CCEE0
:1018F000C29690935B0180935A0106CE80914A0173
:1019000010924A01882351F080915A0190915B0115
:10191000181619060CF0F8CDC297EBCF80914C0148
:1019200010924C01882309F4EFCD309203012092EC
:1019300002010E9409042EE431E04FE050E070E023
:1019400060E080E091E00E94D40680915A0190917D
:101950005B010E947E06D8CDC230D10579F581E0C9
:101960000E94050581E00E94220580E00E94E804B3
:1019700084E392E00E94570684E392E00E941706F7
:10198000882309F4C1CD80E00E94050580E00E9413
:10199000220580E00E94E80483E090E09093050136
:1019A0008093040185E492E00E94D5040E9409041A
:1019B00080E00E94B20469E372E054CDC330D105E7
:1019C00011F580E00E94050581E00E94220580E07B
:1019D0000E94E80481E292E00E94570681E292E0D0
:1019E0000E941706882309F48FCD80E00E94050528
:1019F00080E00E94220580E00E94E80450920501E8
:101A00004092040181CDC430D105D9F481E00E9417
:101A1000050580E00E94220581E00E94E804F09222
:101A20000501E092040110925D018CE292E00E94B7
:101A3000D5040E94090480E00E94B2046FE172E0C4
:101A400011CDC530D10509F0A1C081E00E94050586
:101A500080E00E94220581E00E94E8048EE092E08E
:101A60000E94570680915D01811111C090904B0139
:101A700010924B019920A1F170925D0188ED91E0E7
:101A80000E94D50480915D01882309F43DCD80E05A
:101A90000E94220580E00E94E80480915601909106
:101AA0005701A0915801B0915901892B8A2B8B2B9A
:101AB00009F459C080E00E94050586E090E090930B
:101AC00005018093040183E192E00E94D5040E9405
:101AD000090480E00E94B20469E072E0C3CC982C53
:101AE00081E00E940103EC018EE092E00E94170663
:101AF000882319F161EE71E08EE591E00E945301B7
:101B0000CE010E947E0610920E0210920F021092D9
:101B100010021092110210921A0210921B021092DF
:101B20001C0210921D0210921E0210921F021092AF
:101B300020028EE092E00E945706882483948091D0
:101B40005A0190915B01C817D9070CF0812C6AE00B
:101B500070E080E090E00E9437039810C0CF992099
:101B600009F490CF89CF81E00E940505D09205014C
:101B7000C09204018DEF91E00E94D5040E940904F7
:101B800080E00E94B20460EF71E06CCCC630D105F9
:101B900021F580E00E94050580E00E94220580E09A
:101BA0000E94E8048EE092E00E9457068EE092E0E8
:101BB0000E941706882309F4A7CC81E00E9405053E
:101BC00080E00E94220580E00E94E804D092050196
:101BD000C09204018BEE91E095CC279709F094CC4C
:101BE0000E943F05309205012092040185EE91E0AC
:101BF0000E94D50419CDF999FECF92BD81BDF89A06
:101C0000992780B50895262FF999FECF1FBA92BD66
:101C100081BD20BD0FB6F894FA9AF99A0FBE0196CD
:101C20000895A1E21A2EAA1BBB1BFD010DC0AA1F1D
:101C3000BB1FEE1FFF1FA217B307E407F50720F035
:101C4000A21BB30BE40BF50B661F771F881F991FB0
:101C50001A9469F760957095809590959B01AC01F9
:101C6000BD01CF0108950E94440EA59F900DB49F21
:101C7000900DA49F800D911D11240895EE0FFF1F5C
:101C80000590F491E02D0994A29FB001B39FC0018B
:101C9000A39F700D811D1124911DB29F700D811D98
:0A1CA0001124911D0895F894FFCF60
:101CAA000A010100010000000000FF06D40600003E
:101CBA00000017027701A4016402D501B301C7012C
:101CCA0000000000C00477016A0369030D0A004C92
:0A1CDA006F616456616C756573005C
:00000001FF
